:03000000020B727E
:0C0B7200787FE4F6D8FD75816C020BB9A9
:100ABB0014590000000000000000000000000000BE
:100ACB00000000000000011E00011B00011D004280
:100ADB00000A000042000F00004200080000410025
:100AEB0007004200120000410002004100010041DA
:100AFB00000000440014000000004100060041000B
:100B0B00110043000C780A0043001B3C000043001B
:0A0B1B00187864004300030078001E
:100D5F00E4F53CE4F53CE4FBFDAF3C120CF17F32D3
:100D6F007E007D007C00120EC6053CE53CC394FF5F
:100D7F0040E4E4F53CE4FBAD3CFF120CF17F327E26
:100D8F00007D007C00120EC6053CE53CC394FF407D
:100D9F00E4E4F53CE53CC394FF50B8AB3CE4FDFF05
:100DAF00120CF17F327E007D007C00120EC6053CD6
:020DBF0080E2D0
:1010D700E4F53D12129FBF01FA053DE53DD39407A4
:1010E7004003E4F53DE53DC43354E0FDFFE53DC471
:1010F7003354E0FB120CF17FC87E007D007C0012A8
:041107000EC680CFC1
:10106A00E4F53E12129FBF01FA740A253EF53ED3FB
:10107A0094644003E4F53EAF3E1213BCE53E25E01E
:10108A00FDFFE53E25E0FB120CF17FC87E007D00E6
:07109A007C00120EC680CCA1
:1010A1005392CF5391CF43BA8090FE807481F090D8
:1010B100FE8574B4F090FE84E4F090FE837478F0C1
:1010C100D2AFD201D202C200E4F51A7459251AF83E
:0610D100E690FE86F0220D
:0300C30002001E1A
:10001E00C0E0C083C082C0D075D000C000C007D27F
:10002E0000C0BA43BA8090FE84E030E606E054BFCA
:10003E00F0806A90FE84E030E52FE054DFF030016E
:10004E0004C201805830020CC20290FE87E0F51AFD
:10005E002459803290FE87E0FF741E251AF8A607F9
:10006E00851E1B7865A61B803490FE84E030E41E4E
:10007E00E054EFF0E030E10890FE8674FFF0801D52
:10008E00051A7459251AF8E690FE86F0800F90FE38
:10009E0084E030E308E054F7F0D201D202D0BAC2C5
:0E00AE0000D007D000D0D0D082D083D0E03276
:101375005389F0758CEC758A77D28CD2A9D2AF22BD
:03000B00020F14CD
:100F1400C0E0C083C082C0D090000BE02405F090F4
:100F2400000AE03400F0900010E02405F090000F77
:100F3400E03400F0900009E02405F0900008E0346B
:100F440000F0900013E02405F0900012E03400F06B
:090F5400D0D0D082D083D0E0326D
:1009C600D390000BE0940A90000AE09400500302D2
:1009D6000ABAE51F14603F14604114605F24036087
:1009E60003020A7520B303751F01900007E0601D1E
:1009F600D3900009E094C8900008E0940040117577
:100A06001C01E4900007F0A3F0A3F08003E4F51CBA
:100A1600E490000F804F20B356804F30B305751F0A
:100A260003804FD3900010E094B890000FE0940B31
:100A36004040751C03E4900007F0803630B32BE489
:100A4600F51F900007E06007751C02E4F08012E5D0
:100A56001CB40307E4900007F080069000077401B9
:100A6600F0E4900008F0A3F08008751F028003E40C
:100A7600F51FE51C24FD600924027031121337802E
:100A86002C12134D1200BFE4FBFD7FFF120CF13058
:100A9600B30E7F057E007D007C00120EC620B30DCE
:100AA6007F027E007D007C00120EC680E2E490008C
:050AB6000AF0A3F0228C
:10068D007840E6700302076BD3900013E09432902C
:10069D000012E09400500B900011E0640170030211
:1006AD0008919000117401F0E4FFFE7D807C3F9075
:1006BD000014E0F8A3E0F9A3E0FAA3E0FB12036451
:1006CD00900014700912062F00000000801CE0FC41
:1006DD00A3E0FDA3E0FEA3E0FF7BCD7ACC794C78BF
:1006ED003D1200CD90001412062390000CE0FCE4A6
:1006FD001203E7900014E0F8A3E0F9A3E0FAA3E0F9
:10070D00FB1201BE12041B900002EFF090000DE0F1
:10071D00FCE41203E7900014E0F8A3E0F9A3E0FA7B
:10072D00A3E0FB1201BE12041B900001EFF090003C
:10073D000EE0FCE41203E7900014E0F8A3E0F9A347
:10074D00E0FAA3E0FB1201BE12041B900000EFF0D3
:10075D00FB900002E0FF900001E0FD0208007846EA
:10076D00E6605BD3900013E094F4900012E09401E6
:10077D00500B900011E0640270030208919000117B
:10078D007402F0900006E070047F0180027F0090FB
:10079D000006EFF0602290001BE0FF900002F09049
:1007AD00001CE0900001F0FD90001DE0FE900000A7
:1007BD00F0FB120CF102088A12136202088A7845C6
:1007CD00E660367849E66031D3900013E094B89036
:1007DD000012E0940B500B900011E06403700302C3
:1007ED0008919000117403F0900018E0FFA3E0FD54
:1007FD00A3E0FB120CF102088A7856E660327849C4
:10080D00E6602DD3900013E094B8900012E0940BA5
:10081D005008900011E06404606A9000117404F0B7
:10082D00900003E0FFA3E0FDA3E0FB120CF1804D6F
:10083D007849E67022D3900013E094B8900012E04E
:10084D00940B5008900011E064056038900011740D
:10085D0005F01213628026D3900013E094B8900037
:10086D0012E0940B5008900011E0640660169000A1
:10087D00117406F07B787D787F78120CF1E490008E
:05088D0012F0A3F022AF
:1013850053890F758DB1758BDFD28ED2ABD2AF225B
:03001B0002089246
:10089200C0E0C0F0C083C082C0D075D000C000C02C
:1008A20001C002C003C004C005C006C00712128402
:1008B200784EA60608A60718E6FC08E6FDEC78596D
:1008C200F6AF05EF08F612113D7857EEF608EFF68F
:1008D200AC06EC785BF6EF08F612131E7847A60614
:1008E20008A60718E6FC08E6FDEC785DF6AF05EF12
:1008F20008F61211C77841A60608A60718E6FC08F2
:10090200E6FDEC785FF6AF05EF08F612102B7843A0
:10091200A60608A60718E6FC08E6FDEC7861F6AF25
:1009220005EF08F6784EE6FE08E6FFE4FCFD7B6480
:10093200FAF9F81204C7EF24FC783FF67866F678E5
:1009420057E6FE08E6FFD3940FEE64809480784069
:1009520040047601800276007840E67964F7783FB9
:10096200E6C3941478465004760180027600C3EF01
:1009720094FBEE6480947F78565008760078457632
:100982000180067601784576007847E6FE08E6FFA4
:10099200C39414EE94005008785676007845760198
:1009A2007856E67963F7120E1DD007D006D005D02F
:1009B20004D003D002D001D000D0D0D082D083D0D6
:0409C200F0D0E0325F
:0F139500E51D651B6008851B1DAF1B1213BC22D5
:10110B00120FE81200BC12116D120DC1E4FB7D64CD
:10111B007F78120CF17FFA7E007D007C00120EC6E8
:10112B00120003121230120F5D1210A1121375026E
:02113B0013851A
:1012D30012110B1209C612068D1213957F147E008C
:0912E3007D007C00120EC680EAB9
:0700030053B2F743B10822DC
:10129F0020B3147F057E007D007C00120EC620B3A4
:0A12AF00037F01227F00227F00224E
:1012B90030B3147F057E007D007C00120EC630B36A
:0A12C900037F01227F00227F002234
:100EC6008F0B8E0A8D098C08780874FF120605ECC4
:100ED6004D4E4F6038E4F50FF50EF50DF50CE47F39
:100EE600FAFEFDFCAB0FAA0EA90DA80CC31205F263
:100EF60050D600000000E50F2401F50FE4350EF58D
:0E0F06000EE4350DF50DE4350CF50C80D1220E
:1012EC008F0C8E0B8D0A8C09780974FF120605EC95
:0912FC004D4E4F60030080F0220A
:1011EC008F378E368D358C34783474FF120605ECBF
:1011FC004D4E4F600D7FE87E037D007C00120EC6C5
:03120C0080E62257
:0D000E00E4F5C7F5C5F5C675C380F5C4223D
:10124E0075C78075F50C75C5018FC4EEFF8FC3751C
:0B125E00C65A75C6A500AFC202000E04
:1012690075C78075F50C75C5028FC4EEFF8FC38DE8
:0B127900C275C65A75C6A50002000E23
:1013050075C78075F50C75C5038FC4EEFF8FC37562
:09131500C65A75C6A50002000EBF
:0913B3004396105395EFC2A422E9
:0913BC00EF7003C2A422D2A422A6
:100B2500014900015600014500014600014000024F
:100B35004E0000025700000247000002410000027B
:100B4500430000013F00022100000227000002507F
:100B550005DC024C0000024A0000045200000000BF
:0C0B6500022507D0022307D0022C00322A
:100FE8004394015393FE43B20453B1FB5394FD431E
:100FF80093025392F74391085396F74395085396F3
:10100800DF4395204392015391FE5392BF43914091
:1010180053927F4391805394FB4393045394F74333
:0310280093082208
:0300BC00D2B2229B
:0300BF00C2B222A8
:10133700D280784976017F007E041213057D027FF3
:06134700007E04021269A1
:10134D00C280E47849F6FF7E041213057D017F000B
:05135D007E040212698C
:10116D00E4F50820A50E7FF47E01FDFC1212EC20A3
:10117D00A50280127F007E0412124E8F08E508240E
:0D118D00FE600304800302133712134D228D
:1012300043BA8090FEA8743FF075DE0F43DE207540
:0E124000BC80752900752A00752BEF02102B5B
:10120F00E4FDFC53BCF0EF42BC43BC400000E5BC26
:10121F0030E5FB53BCDFAFBDEFADBEFCEDAE04FF61
:01122F00229C
:100C8200AB07E4F510F5117F0F12120F8E218F22A0
:100C9200AF0312120F8E108F11AB29AA2AA92B12A1
:100CA200049CFDACF0EC1203E2C004C005C006C017
:100CB20007AC21AD22E41203E2A804A905AA06ABFF
:100CC20007D007D006D005D0041202C7C004C00561
:100CD200C006C007AC10AD11E41203E2D003D0028B
:0F0CE200D001D0001201BE12041B8E108F112200
:10102B007F0F12120F8E218F22AB29AA2AA92B1206
:10103B00049CFFAEF0EE3395E0FDFCE4FB7A04F983
:10104B00F81204C7C006C007AE21AF22AB07AA0631
:0F105B00E4F9F8D007D006120FA48E278F2822B1
:10131E007F06120C82AC06AD07E41203E2E4FBFA80
:09132E00F978401201BE02041B13
:101284007F07120C82AC06AD07E41203E27B977A67
:0B12940096795678401201BE02041B40
:10113D007F0A120C82EF241EFFEE34FBFEC3E49FE8
:10114D00FDE49EFCE41203E27B0A7AD779A3783B97
:10115D001202C7E4FBFA79C878421202C702041BD7
:1011C7007F0B120C82AC06AD07E41203E27B0A7AAE
:1011D700D779A3783B1202C7E4FBFA79C8784212A1
:0511E70002C702041B19
:100E1D008E108F117849E67004FFFE8046AF11AE3B
:100E2D0010120BFE12041B784CEEF608EFF6C37889
:100E3D0051E69FFF18E69EFEF608EFF6D394DCEE22
:100E4D006480948540081876050876DC800EC3789A
:100E5D0050E6648094805004E4F608F67850E6FE7F
:070E6D0008E6FF12119A22B2
:100F5D004392015391FE43BA8090FECCE4F090FE93
:100F6D00C87468F090FECC7401F090FED0E4F0A34C
:100F7D0004F0A304F0A37457F090FED57405F0A30C
:100F8D0074DCF090FEB1E04401F090FEDD7480F071
:070F9D0090FEC07401F02278
:10119A007C027D58120660C006C007AE27AF28AB96
:1011AA0007AA06E4F9F8D007D006120552AC06AD34
:0D11BA000743BA8090FED5ECF0A3EDF022C3
:100BFE00EF24AAFDEE34ECFC1203E28F158E148D59
:100C0E00138C12784AE6FC08E6FDEC1203E2A80407
:100C1E00A905AA06AB07AF15AE14AD13AC121200A0
:100C2E00C98F198E188D178C16AF15AE14AD13AC67
:100C3E001212041B784AA60608A6077FCD7ECC7D2D
:100C4E00CC7C3EAB19AA18A917A8161201BEC00477
:100C5E00C005C006C0077FCD7ECC7DCC7C3DAB15DC
:100C6E00AA14A913A8121201BED003D002D001D02B
:040C7E00000200CDA3
:100E7400C2801212848E2E8F2F12113D8E328F3328
:100E8400D2801212848E308F3112113D8F828E8364
:100E9400C3E531952FFFE530952EFE7C037DE812E6
:100EA4000660C006C007C3E5829533FFE58395322B
:100EB400AB07FAE4F9F8D007D0061205528E2C8F4E
:020EC4002D22DD
:0F13A4001212848E388F3912113D8E3A8F3B22F0
:01000A0022D3
:0100C200221B
:0113C5002205
:100DC1005396F85395F843BA8090FEECE4F090FE08
:100DD100E87468F0A3F0A3F090FEEC7433F0A37410
:100DE10003F090FEF0E4F0A304F0A304F0A3745721
:100DF100F090FEF5E4F0A3F0A3F0A3F0A3F0A3F0CC
:100E010090FEB5E04401F0E04404F0E04410F090BD
:0C0E1100FEFD7480F090FEE07401F02201
:100CF1008D088B09E4F50AF50BF50CF50DFE7C0268
:100D01007D58120660E47BFFFAF9F81205528E0A4B
:100D11008F0BAF087E007C027D58120660E47BFFDA
:100D2100FAF9F81205528E0C8F0DAF097E007C0284
:100D31007D58120660E47BFFFAF9F8120552AC0601
:100D4100AD0743BA8090FEF5ECF0A3EDF0E50CA3FE
:0E0D5100F0A3E50DF0E50AA3F0A3E50BF022F8
:1013620043BA8090FEF5E4F0A3F0A3F0A3F0A3F05B
:03137200A3F022C3
:1000C600020487E86480F8E933E83360110460F0DD
:1000D600ED33EC337009E8FCE9FDEAFEEBFF2204A0
:1000E60060DED3EB9FEA9EE99DE8C2E78CF0C2F79B
:1000F60095F0400CE8CCF8E9CDF9EACEFAEBCFFB67
:1001060012045285D0F05804700320D5B3E8047069
:10011600075002B2D502049192D5EC0460F7E4CC04
:10012600C0E0C398F8603B94186008400DD0E0FB2F
:10013600020469E4FBFAC9FC8028E830E406E4C955
:10014600FBE4CAFCE830E305E4C9CACBFCE8540783
:100156006010F8C3E913F9EA13FAEB13FBEC13FC8E
:10016600D8F130F52FC3E49CFCEF9BFFEE9AFEED31
:1001760099FDD0E0FBEF4E4D4C701222DB030204DA
:100186008EEC2CFCEF33FFEE33FEED33FDED30E766
:10019600EB020469EF2BFFEE3AFEED39FDD0E0FBF2
:1001A60050130BBB0003020491ED13FDEE13FEEF9B
:0801B60013FFEC13FC020469C5
:1001BE00EC4D6011E8497017ED33EC3304600DE43B
:1001CE00FCFFFEFD22E933E8330470F802048712C7
:1001DE00045258046009E4CC2481500628500902C8
:1001EE00049128400302048EC0E0EB4A7044B980AB
:1001FE0006D0E0FB02047DEF4E701CBD8008EBFFC5
:10020E00EAFEE9FD80EBE98DF0A4FEE5F00202A71F
:10021E00E9CDF9EAFEEBFFEF89F0A4FCE5F0CE891B
:10022E00F0A42EFFE435F0CD89F0A42DFEE435F0D8
:10023E008067EF4E7005BD80D780C3EF8BF0A4AC06
:10024E00F0EE8BF0A42CFCE435F0F8EF8AF0A42C41
:10025E00E5F038FCE433CB8DF0A42CFCE5F03BF854
:10026E00EE8AF0A42CFCE5F038F8E433CF89F0A444
:10027E002CFCE5F038CF3400CE89F0A42FFFE5F04A
:10028E003EFEE433C98DF0A42EFEE5F039CD8AF0A2
:10029E00A42FFFE5F03EFEE43DFD33D0E0FB50071A
:1002AE000BBB000F020491EC2CFCEF33FFEE33FE80
:0602BE00ED33FD020469AE
:1002C400020491EC5D046005E8590470030204879C
:1002D400120452580460F6EC4860F2EC7004FDFE1F
:1002E400FF22C860DB2481C85009C398600250060D
:1002F40002048E9850CAF582E9294B4A7005AB82F4
:1003040002047D75F0007C1A7880C3EF9BEE9AEDB1
:1003140099400DC3EF9BFFEE9AFEED99FDE842F084
:10032400DC23ACF0D0E0FFD0E0FED0E0FDAB8220D7
:10033400E7101BEB60BAEC2CFCEF33FFEE33FEED61
:1003440033FD020469E803F830E705C0F075F000F6
:10035400EF2FFFEE33FEED33FD40B830E7C280AA45
:1003640074F8CC6480CCC86480C8F58204604FC340
:10037400EB9FF5F0EA9E42F0E99D42F0E89C45F0DF
:10038400603C501DE5825FFFE582D313CB5BCBF469
:100394002B5582FB50280ABA002409B90020088092
:1003A4001DE5825BFBE582D313CF5FCFF4C3132F2C
:1003B4005582FF50090EBE00050DBD00010CC3EBB4
:1003C4009FF5F0EA9E42F0E99D42F0E89C45F0601A
:0903D40007CC4820E701B3EC223C
:1003DD0075F020800E75F010800575F0087D007E9B
:1003ED00007F003392D530D5031205E4EC33401075
:1003FD00EF33FFEE33FEED33FDEC33FCD5F0ED22A4
:0E040D00E5F0247EA2D513CC92E7CDCEFF22DF
:10041B00EDD2E7CD33EC3392D524814006E4FFFED9
:10042B00FDFC22FCE4CFCECDCC24E0501174FF8038
:10043B00EDC3CC13CCCD13CDCE13CECF13CF0470D5
:07044B00F030D5DE0205E4EC
:10045200E9D2E7C933E833F892D5EDD2E7CD33ECF0
:0704620033FC5002B2D52269
:10046900EC30E7100FBF000C0EBE00080DBD0004F4
:100479000BEB6014A2D5EB13FCED92E7FD2274FFA0
:10048900FCFDFEFF22E480F8A2D574FF13FC7D80F9
:03049900E480EF0D
:100B7E000212D3E493A3F8E493A34003F68001F2A8
:100B8E0008DFF48029E493A3F85407240CC8C33378
:100B9E00C4540F4420C8834004F456800146F6DF47
:100BAE00E4800B0102040810204080900ABBE47E12
:100BBE00019360BCA3FF543F30E509541FFEE4933C
:100BCE00A360010ECF54C025E060A840B8E493A303
:100BDE00FAE493A3F8E493A3C8C582C8CAC583CA2E
:100BEE00F0A3C8C582C8CAC583CADFE9DEE780BEE6
:010B71000083
:10049C00BB010A89828A83E0F5F0A3E0225006872B
:1004AC00F009E71922BBFE07E3F5F009E3192289ED
:0B04BC00828A83E493F5F07401932220
:1004C700E88FF0A4CC8BF0A42CFCE98EF0A42CFCD4
:1004D7008AF0EDA42CFCEA8EF0A4CDA8F08BF0A452
:1004E7002DCC3825F0FDE98FF0A42CCD35F0FCEBB1
:1004F7008EF0A4FEA9F0EB8FF0A4CFC5F02ECD3976
:0F050700FEE43CFCEAA42DCE35F0FDE43CFC22E2
:1005160075F008758200EF2FFFEE33FECD33CDCC9C
:1005260033CCC58233C5829BED9AEC99E58298401F
:100536000CF582EE9BFEED9AFDEC99FC0FD5F0D6FC
:10054600E4CEFBE4CDFAE4CCF9A88222B800C1B926
:100556000059BA002DEC8BF084CFCECDFCE5F0CB64
:10056600F97818EF2FFFEE33FEED33FDEC33FCEB9D
:1005760033FB10D703994004EB99FB0FD8E5E4F958
:10058600FA227818EF2FFFEE33FEED33FDEC33FC45
:10059600C933C910D7059BE99A4007EC9BFCE99A39
:1005A600F90FD8E0E4C9FAE4CCFB2275F010EF2F7E
:1005B600FFEE33FEED33FDCC33CCC833C810D7077E
:1005C6009BEC9AE899400AED9BFDEC9AFCE899F8B9
:0E05D6000FD5F0DAE4CDFBE4CCFAE4C8F9224C
:100FA400C2D5E830E70FB2D5E4C39BFBE49AFAE478
:100FB40099F9E498F8EC30E717B2D5120FDA120574
:100FC40052E4C39BFBE49AFAE499F9E498F88003A9
:100FD40012055230D50DE4C39FFFE49EFEE49DFD4F
:040FE400E49CFC226B
:0E05E400C3E49FFFE49EFEE49DFDE49CFC2228
:1005F200EB9FF5F0EA9E42F0E99D42F0E89C45F05F
:0106020022D5
:100603007401FF3395E0FEFDFC080808E6CF2FF6E2
:1006130018E6CE3EF618E6CD3DF618E6CC3CF622BB
:0C062300ECF0A3EDF0A3EEF0A3EFF0224A
:10062F00A8828583F0D083D0821206461206461226
:10063F000646120646E473E493A3C583C5F0C5834B
:10064F00C8C582C8F0A3C583C5F0C583C8C582C815
:01065F002278
:10066000EC8EF0A4CCC5F0CCCDF8EFA4CEC5F02D27
:10067000FDE43CFCE8A42EC8C5F03DFDE43CFCEFE5
:0D068000A4FFE5F028FEE43DFDE43CFC2273
:00000001FF
