:0300000002001EDD
:0C001E00787FE4F6D8FD7581680200656B
:100B4B001059000102030405060708090A0B0C0DD6
:100B5B000E0F41001F0001570001580042000A0010
:100B6B000042001000004200080000410003004357
:100B7B0000206D006B430012C8000041000F0042C3
:100B8B00001600004100020041000100410000007E
:100B9B00440018000000004100070041001500430D
:100BAB00000C780A004300233C000043001C7864CF
:070BBB000043000400780074
:100E1D00E4F539E4F539E4FBFDAF39120DAF7F325E
:100E2D007E007D007C00120F840539E539C394FFE7
:100E3D0040E4E4F539E4FBAD39FF120DAF7F327EAE
:100E4D00007D007C00120F840539E539C394FF4005
:100E5D00E4E4F539E539C394FF50B8AB39E4FDFF4F
:100E6D00120DAF7F327E007D007C00120F8405399C
:020E7D0080E211
:1011CA00E4F53A12137CBF01FA053AE53AD39407DB
:1011DA004003E4F53AE53AC43354E0FDFFE53AC486
:1011EA003354E0FB120DAF7FC87E007D007C0012F5
:0411FA000F8480CF0F
:10112800E4F53B12137CBF01FA740A253BF53BD367
:1011380094644003E4F53BAF3B121466E53B25E0BD
:10114800FDFFE53B25E0FB120DAF7FC87E007D006B
:071158007C00120F8480CC23
:10115F005392CF5391CF43BA8090FE807481F09019
:10116F00FE8574B4F090FE84E4F090FE837478F002
:10117F00D2AFD201D202C200E47856F6E62459F873
:06118F00E690FE86F0224E
:0300C300020C0F1D
:100C0F00C0E0C083C082C0D075D000C000C007D282
:100C1F0000C0BA43BA8090FE84E030E606E054BFCD
:100C2F00F0807990FE84E030E53EE054DFF0300153
:100C3F000C90FE87E05401F538C201805F30020B43
:100C4F00C20290FE87E07856F680377856E6704CF1
:100C5F0090FE87E064B56044E090001FF0E008F676
:100C6F007866F6785606803490FE84E030E41EE015
:100C7F0054EFF0E030E10890FE8674FFF0801D78AD
:100C8F005606E62459F8E690FE86F0800F90FE8413
:100C9F00E030E308E054F7F0D201D202D0BAC2003C
:0D0CAF00D007D000D0D0D082D083D0E0326A
:101420005389F0758CEC758A77D28CD2A9D2AF2211
:03000B00020FD20F
:100FD200C0E0C083C082C0D090000BE02405F09036
:100FE200000AE03400F0900011E02405F0900010B7
:100FF200E03400F0900009E02405F0900008E034AD
:1010020000F0900017E02405F0900016E03400F0A4
:09101200D0D0D082D083D0E032AE
:100A1800D390000BE0940A90000AE094005003027F
:100A28000B4AE53714603E14604314606B2403607E
:100A380003020AE420B306753701020AE7900003AF
:100A4800E0601DD3900009E094C8900008E094008D
:100A58005003020AE7753601E4900003F0020AE742
:100A6800E4F536807A20B374753702806630B305B2
:100A7800753703806A900010E0FEA3E0FFD39488E6
:100A8800EE941340057536058055D3EF94D0EE9457
:100A980007404C753603804720B305753702803F01
:100AA800E4F537E536B403057536048005E536B454
:100AB8000507E4900003F0801A900003E0600775D2
:100AC8003602E4F0800D9000037401F0E490000811
:100AD800F0A3F0E4900010F0A3F08003E4F537E50C
:100AE8003624FE601424FE601A1460302404704B0F
:100AF8001213E2E4FB7DFF80047BFFE4FDFF120D8F
:100B0800AF802D900020E0FFA3E0FDA3E0FB120DD5
:100B1800AF90000F7402F07868F68014900012E02D
:100B2800FFA3E0FDA3E0FB120DAF1213F81214723D
:100B38007FC87E007D007C00120F84E490000AF0DC
:030B4800A3F022F5
:10068D00E53664036005E536B40405900020800866
:10069D00E536B4050E900012E0FFA3E0FDA3E0FBEC
:1006AD00020DAF783DE6700302078ED3900017E080
:1006BD009432900016E09400500B900015E0640108
:1006CD0070030208B49000157401F0E4FFFE7D8004
:1006DD007C3F900018E0F8A3E0F9A3E0FAA3E0FB5B
:1006ED00120364900018700912062F00000000809C
:1006FD001CE0FCA3E0FDA3E0FEA3E0FF7BCD7ACCE4
:10070D00794C783D1200CD90001812062390000C04
:10071D00E0FCE41203E7900018E0F8A3E0F9A3E091
:10072D00FAA3E0FB1201BE12041B900002EFF09041
:10073D00000DE0FCE41203E7900018E0F8A3E0F9E7
:10074D00A3E0FAA3E0FB1201BE12041B900001EF1F
:10075D00F090000EE0FCE41203E7900018E0F8A31F
:10076D00E0F9A3E0FAA3E0FB1201BE12041B900016
:10077D0000EFF0FB900002E0FF900001E0FD0208A9
:10078D00237843E6605BD3900017E094F490001655
:10079D00E09401500B900015E0640270030208B460
:1007AD009000157402F0900007E070047F01800244
:1007BD007F00900007EFF06022900023E0FF900093
:1007CD0002F0900024E0900001F0FD900025E0FE85
:1007DD00900000F0FB120DAF0208AD12140D0208CF
:1007ED00AD7842E660367846E66031D3900017E08A
:1007FD0094B8900016E0940B500B900015E0640334
:10080D0070030208B49000157403F090001CE0FF13
:10081D00A3E0FDA3E0FB120DAF0208AD7853E66037
:10082D00327846E6602DD3900017E094B89000160C
:10083D00E0940B5008900015E06404606A90001578
:10084D007404F0900004E0FFA3E0FDA3E0FB120DA3
:10085D00AF804D7846E67022D3900017E094B890A3
:10086D000016E0940B5008900015E0640560389078
:10087D0000157405F012140D8026D3900017E09426
:10088D00B8900016E0940B5008900015E0640660D7
:10089D00169000157406F07B787D787F78120DAF79
:0808AD00E4900016F0A3F02214
:1014300053890F758DB1758BDFD28ED2ABD2AF22AF
:03001B000208B523
:1008B500C0E0C0F0C083C082C0D075D000C000C009
:1008C50001C002C003C004C005C006C00712136101
:1008D500784BA60608A60718E6FC08E6FDEC78594D
:1008E500F6AF05EF08F61211FE7854EEF608EFF6AE
:1008F500AC06EC785BF6EF08F61213C97844A60649
:1009050008A60718E6FC08E6FDEC785DF6AF05EFEE
:1009150008F6121288783EA60608A60718E6FC080F
:10092500E6FDEC785FF6AF05EF08F61210E97840C2
:10093500A60608A60718E6FC08E6FDEC7861F6AF02
:1009450005EF08F6784BE6FE08E6FFD394D0EE9463
:10095500204006783C76648033C3EF9438EE9418D3
:100965005006783C76008024784CE624C8FF18E6CB
:1009750034E7FEE4FCFD7B64FAF9F81204C7E47B76
:10098500987A08F9F8121062783CA607783CE6FFD9
:100995007867F67854E6FC08E6FDD3940FEC64809E
:1009A5009480783D4004760180027600783DE679B2
:1009B50065F7EFC3941478435004760180027600FE
:1009C500C3ED94F6EC6480947F7842500476018000
:1009D5000276007844E6FE08E6FFC394B8EE940B71
:1009E500785350047600800276017842E67963F701
:1009F5007853E609F7120EDBD007D006D005D004F0
:100A0500D003D002D001D000D0D0D082D083D0F096
:030A1500D0E032FC
:0E144F007857E6FF08666005A60712146622AD
:01000A0022D3
:101195001210A612146F12122E120E7FE4FB7D643C
:1011A5007F78120DAF7FFA7E007D007C00120F84E0
:1011B50012000312145D1212F112101B12115F12AC
:0511C5001420021430AB
:10130F00121195120A1812068D12144F12000A7F2D
:0C131F00147E007D007C00120F8480E72B
:0700030053B2F743B10822DC
:10137C0020B3147F057E007D007C00120F8420B307
:0A138C00037F01227F00227F002270
:1013960030B3147F057E007D007C00120F8430B3CD
:0A13A600037F01227F00227F002256
:100F84008F0B8E0A8D098C08780874FF120605EC05
:100F94004D4E4F6038E4F50FF50EF50DF50CE47F7A
:100FA400FAFEFDFCAB0FAA0EA90DA80CC31205F2A4
:100FB40050D600000000E50F2401F50FE4350EF5CE
:0E0FC4000EE4350DF50DE4350CF50C80D12250
:1000AA008F0C8E0B8D0A8C09780974FF120605ECE9
:0900BA004D4E4F60030080F0225E
:1012AD008F318E308D2F8C2E782E74FF120605EC1B
:1012BD004D4E4F600D7FE87E037D007C00120F8444
:0312CD0080E62296
:0D000E00E4F5C7F5C5F5C675C380F5C4223D
:10132B0075C78075F50C75C5018FC4EEFF8FC3753E
:0B133B00C65A75C6A500AFC202000E26
:1013460075C78075F50C75C5028FC4EEFF8FC38D0A
:0B135600C275C65A75C6A50002000E45
:1013B00075C78075F50C75C5038FC4EEFF8FC375B7
:0913C000C65A75C6A50002000E14
:09145D004396105395EFC2A4223E
:09146600EF7003C2A422D2A422FB
:100BC200014600015300014200014300013D0002C1
:100BD2004B00000254000002440000023E000002EA
:100BE200400000013C000221000002270000024DEB
:100BF20005DC0249000002470000044F000000002B
:0C0C0200022507D0022307D0022C00328C
:1010A6004394015393FE43B20453B1FB5394FD435F
:1010B60093025392F74391085396F7439508539634
:1010C600DF4395204392015391FE5392BF439140D3
:1010D60053927F4391805394FB4393045394F74375
:0310E6009308224A
:03146F00D2B222D4
:03147200C2B222E1
:1013E200D280784676017F007E041213B07D027FA0
:0613F200007E0402134618
:1013F800C280E47846F6FF7E041213B07D017F00B8
:051408007E0402134602
:10122E00E4F50820A50E7FF47E01FDFC1200AA2035
:10123E00A50280127F007E0412132B8F08E508246E
:0D124E00FE60030480030213E21213F82275
:1012F10043BA8090FEA8743FF075DE0F43DE20757F
:0E130100BC80752900752A00752BEF0210E9DB
:1012D000E4FDFC53BCF0EF42BC43BC400000E5BC65
:1012E00030E5FB53BCDFAFBDEFADBEFCEDAE04FFA0
:0112F00022DB
:100D4000AB07E4F510F5117F0F1212D08E218F2220
:100D5000AF031212D08E108F11AB29AA2AA92B1221
:100D6000049CFDACF0EC1203E2C004C005C006C058
:100D700007AC21AD22E41203E2A804A905AA06AB40
:100D800007D007D006D005D0041202C7C004C005A2
:100D9000C006C007AC10AD11E41203E2D003D002CC
:0F0DA000D001D0001201BE12041B8E108F112241
:1010E9007F0F1212D08E218F22AB29AA2AA92B1287
:1010F900049CFFAEF0EE3395E0FDFCE4FB7A04F9C5
:10110900F81204C7C006C007AE21AF22AB07AA0672
:0F111900E4F9F8D007D0061210628E278F282233
:1013C9007F06120D40AC06AD07E41203E2E4FBFA16
:0913D900F978401201BE02041B68
:101361007F07120D40AC06AD07E41203E27B977ACA
:0B13710096795678401201BE02041B62
:1011FE007F0A120D40EF241EFFEE34FBFEC3E49F68
:10120E00FDE49EFCE41203E27B0A7AD779A3783BD5
:10121E001202C7E4FBFA79C878421202C702041B15
:101288007F0B120D40AC06AD07E41203E27B0A7A2D
:10129800D779A3783B1202C7E4FBFA79C8784212DF
:0512A80002C702041B57
:100EDB008E108F117846E67004FFFE8046AF11AE80
:100EEB0010120CBC12041B7849EEF608EFF6C3780F
:100EFB004EE69FFF18E69EFEF608EFF6D394DCEE67
:100F0B006480948540081876050876DC800EC378DB
:100F1B004DE6648094805004E4F608F6784DE6FEC6
:070F2B0008E6FF12125B2231
:10101B004392015391FE43BA8090FECCE4F090FED4
:10102B00C87468F090FECC7401F090FED0E4F0A38D
:10103B0004F0A304F0A37457F090FED57405F0A34D
:10104B0074DCF090FEB1E04401F090FEDD7480F0B2
:07105B0090FEC07401F022B9
:10125B007C027D58120660C006C007AE27AF28ABD4
:10126B0007AA06E4F9F8D007D006120552AC06AD72
:0D127B000743BA8090FED5ECF0A3EDF02201
:100CBC00EF24AAFDEE34ECFC1203E28F158E148D9A
:100CCC00138C127847E6FC08E6FDEC1203E2A8044C
:100CDC00A905AA06AB07AF15AE14AD13AC121200E2
:100CEC00C98F198E188D178C16AF15AE14AD13ACA9
:100CFC001212041B7847A60608A6077FCD7ECC7D72
:100D0C00CC7C3EAB19AA18A917A8161201BEC004B8
:100D1C00C005C006C0077FCD7ECC7DCC7C3DAB151D
:100D2C00AA14A913A8121201BED003D002D001D06C
:040D3C00000200CDE4
:100F3200C2801213618E1A8F1B1211FE8E1E8F1F1A
:100F4200D2801213618E1C8F1D1211FE8F828E832E
:100F5200C3E51D951BFFE51C951AFE7C037DE81277
:100F62000660C006C007C3E582951FFFE583951E94
:100F7200AB07FAE4F9F8D007D0061205528E2C8F8F
:020F82002D221E
:0F1440001213618E328F331211FE8E348F3522CC
:011475002254
:011476002253
:011477002252
:100E7F005396F85395F843BA8090FEECE4F090FE49
:100E8F00E87468F0A3F0A3F090FEEC7433F0A37451
:100E9F0003F090FEF0E4F0A304F0A304F0A3745762
:100EAF00F090FEF5E4F0A3F0A3F0A3F0A3F0A3F00D
:100EBF0090FEB5E04401F0E04404F0E04410F090FF
:0C0ECF00FEFD7480F090FEE07401F02243
:100DAF008D088B09E4F50AF50BF50CF50DFE7C02A9
:100DBF007D58120660E47BFFFAF9F81205528E0A8D
:100DCF008F0BAF087E007C027D58120660E47BFF1C
:100DDF00FAF9F81205528E0C8F0DAF097E007C02C6
:100DEF007D58120660E47BFFFAF9F8120552AC0643
:100DFF00AD0743BA8090FEF5ECF0A3EDF0E50CA340
:0E0E0F00F0A3E50DF0E50AA3F0A3E50BF02239
:10140D0043BA8090FEF5E4F0A3F0A3F0A3F0A3F0AF
:03141D00A3F02217
:1000C600020487E86480F8E933E83360110460F0DD
:1000D600ED33EC337009E8FCE9FDEAFEEBFF2204A0
:1000E60060DED3EB9FEA9EE99DE8C2E78CF0C2F79B
:1000F60095F0400CE8CCF8E9CDF9EACEFAEBCFFB67
:1001060012045285D0F05804700320D5B3E8047069
:10011600075002B2D502049192D5EC0460F7E4CC04
:10012600C0E0C398F8603B94186008400DD0E0FB2F
:10013600020469E4FBFAC9FC8028E830E406E4C955
:10014600FBE4CAFCE830E305E4C9CACBFCE8540783
:100156006010F8C3E913F9EA13FAEB13FBEC13FC8E
:10016600D8F130F52FC3E49CFCEF9BFFEE9AFEED31
:1001760099FDD0E0FBEF4E4D4C701222DB030204DA
:100186008EEC2CFCEF33FFEE33FEED33FDED30E766
:10019600EB020469EF2BFFEE3AFEED39FDD0E0FBF2
:1001A60050130BBB0003020491ED13FDEE13FEEF9B
:0801B60013FFEC13FC020469C5
:1001BE00EC4D6011E8497017ED33EC3304600DE43B
:1001CE00FCFFFEFD22E933E8330470F802048712C7
:1001DE00045258046009E4CC2481500628500902C8
:1001EE00049128400302048EC0E0EB4A7044B980AB
:1001FE0006D0E0FB02047DEF4E701CBD8008EBFFC5
:10020E00EAFEE9FD80EBE98DF0A4FEE5F00202A71F
:10021E00E9CDF9EAFEEBFFEF89F0A4FCE5F0CE891B
:10022E00F0A42EFFE435F0CD89F0A42DFEE435F0D8
:10023E008067EF4E7005BD80D780C3EF8BF0A4AC06
:10024E00F0EE8BF0A42CFCE435F0F8EF8AF0A42C41
:10025E00E5F038FCE433CB8DF0A42CFCE5F03BF854
:10026E00EE8AF0A42CFCE5F038F8E433CF89F0A444
:10027E002CFCE5F038CF3400CE89F0A42FFFE5F04A
:10028E003EFEE433C98DF0A42EFEE5F039CD8AF0A2
:10029E00A42FFFE5F03EFEE43DFD33D0E0FB50071A
:1002AE000BBB000F020491EC2CFCEF33FFEE33FE80
:0602BE00ED33FD020469AE
:1002C400020491EC5D046005E8590470030204879C
:1002D400120452580460F6EC4860F2EC7004FDFE1F
:1002E400FF22C860DB2481C85009C398600250060D
:1002F40002048E9850CAF582E9294B4A7005AB82F4
:1003040002047D75F0007C1A7880C3EF9BEE9AEDB1
:1003140099400DC3EF9BFFEE9AFEED99FDE842F084
:10032400DC23ACF0D0E0FFD0E0FED0E0FDAB8220D7
:10033400E7101BEB60BAEC2CFCEF33FFEE33FEED61
:1003440033FD020469E803F830E705C0F075F000F6
:10035400EF2FFFEE33FEED33FD40B830E7C280AA45
:1003640074F8CC6480CCC86480C8F58204604FC340
:10037400EB9FF5F0EA9E42F0E99D42F0E89C45F0DF
:10038400603C501DE5825FFFE582D313CB5BCBF469
:100394002B5582FB50280ABA002409B90020088092
:1003A4001DE5825BFBE582D313CF5FCFF4C3132F2C
:1003B4005582FF50090EBE00050DBD00010CC3EBB4
:1003C4009FF5F0EA9E42F0E99D42F0E89C45F0601A
:0903D40007CC4820E701B3EC223C
:1003DD0075F020800E75F010800575F0087D007E9B
:1003ED00007F003392D530D5031205E4EC33401075
:1003FD00EF33FFEE33FEED33FDEC33FCD5F0ED22A4
:0E040D00E5F0247EA2D513CC92E7CDCEFF22DF
:10041B00EDD2E7CD33EC3392D524814006E4FFFED9
:10042B00FDFC22FCE4CFCECDCC24E0501174FF8038
:10043B00EDC3CC13CCCD13CDCE13CECF13CF0470D5
:07044B00F030D5DE0205E4EC
:10045200E9D2E7C933E833F892D5EDD2E7CD33ECF0
:0704620033FC5002B2D52269
:10046900EC30E7100FBF000C0EBE00080DBD0004F4
:100479000BEB6014A2D5EB13FCED92E7FD2274FFA0
:10048900FCFDFEFF22E480F8A2D574FF13FC7D80F9
:03049900E480EF0D
:10002A0002130FE493A3F8E493A34003F68001F2CA
:10003A0008DFF48029E493A3F85407240CC8C333D7
:10004A00C4540F4420C8834004F456800146F6DFA6
:10005A00E4800B0102040810204080900B4BE47EE0
:10006A00019360BCA3FF543F30E509541FFEE4939B
:10007A00A360010ECF54C025E060A840B8E493A362
:10008A00FAE493A3F8E493A3C8C582C8CAC583CA8D
:10009A00F0A3C8C582C8CAC583CADFE9DEE780BE45
:010C0E0000E5
:10049C00BB010A89828A83E0F5F0A3E0225006872B
:1004AC00F009E71922BBFE07E3F5F009E3192289ED
:0B04BC00828A83E493F5F07401932220
:1004C700E88FF0A4CC8BF0A42CFCE98EF0A42CFCD4
:1004D7008AF0EDA42CFCEA8EF0A4CDA8F08BF0A452
:1004E7002DCC3825F0FDE98FF0A42CCD35F0FCEBB1
:1004F7008EF0A4FEA9F0EB8FF0A4CFC5F02ECD3976
:0F050700FEE43CFCEAA42DCE35F0FDE43CFC22E2
:1005160075F008758200EF2FFFEE33FECD33CDCC9C
:1005260033CCC58233C5829BED9AEC99E58298401F
:100536000CF582EE9BFEED9AFDEC99FC0FD5F0D6FC
:10054600E4CEFBE4CDFAE4CCF9A88222B800C1B926
:100556000059BA002DEC8BF084CFCECDFCE5F0CB64
:10056600F97818EF2FFFEE33FEED33FDEC33FCEB9D
:1005760033FB10D703994004EB99FB0FD8E5E4F958
:10058600FA227818EF2FFFEE33FEED33FDEC33FC45
:10059600C933C910D7059BE99A4007EC9BFCE99A39
:1005A600F90FD8E0E4C9FAE4CCFB2275F010EF2F7E
:1005B600FFEE33FEED33FDCC33CCC833C810D7077E
:1005C6009BEC9AE899400AED9BFDEC9AFCE899F8B9
:0E05D6000FD5F0DAE4CDFBE4CCFAE4C8F9224C
:10106200C2D5E830E70FB2D5E4C39BFBE49AFAE4B9
:1010720099F9E498F8EC30E717B2D51210981205F6
:1010820052E4C39BFBE49AFAE499F9E498F88003EA
:1010920012055230D50DE4C39FFFE49EFEE49DFD90
:0410A200E49CFC22AC
:0E05E400C3E49FFFE49EFEE49DFDE49CFC2228
:1005F200EB9FF5F0EA9E42F0E99D42F0E89C45F05F
:0106020022D5
:100603007401FF3395E0FEFDFC080808E6CF2FF6E2
:1006130018E6CE3EF618E6CD3DF618E6CC3CF622BB
:0C062300ECF0A3EDF0A3EEF0A3EFF0224A
:10062F00A8828583F0D083D0821206461206461226
:10063F000646120646E473E493A3C583C5F0C5834B
:10064F00C8C582C8F0A3C583C5F0C583C8C582C815
:01065F002278
:10066000EC8EF0A4CCC5F0CCCDF8EFA4CEC5F02D27
:10067000FDE43CFCE8A42EC8C5F03DFDE43CFCEFE5
:0D068000A4FFE5F028FEE43DFDE43CFC2273
:00000001FF
