:0300000002046592
:0C046500787FE4F6D8FD7581430204ACFA
:0708A30053B27F43B1802234
:1008080020B7147F057E007D007C0012068320B788
:0A081800037F01227F00227F0022EF
:100683008F148E138D128C11781174FF12041AECCF
:100693004D4E4F6038E4F518F517F516F515E47F60
:1006A300FAFEFDFCAB18AA17A916A815C312040776
:1006B30050D600000000E5182401F518E43517F5BD
:0E06C30017E43516F516E43515F51580D1222D
:100822008F158E148D138C12781274FF12041AEC29
:090832004D4E4F60030080F022DE
:10009D008F1C8E1B8D1A8C19781974FF12041AEC93
:1000AD004D4E4F600D7FE87E037D007C0012068370
:0300BD0080E622B8
:0D087B00E4F5C7F5C5F5C675C380F5C422C8
:1007D20075C78075F50C75C5018FC4EEFF8FC375A3
:0B07E200C65A75C6A500AFC202087B16
:1007ED0075C78075F50C75C5028FC4EEFF8FC38D6F
:0B07FD00C275C65A75C6A50002087B35
:10083B0075C78075F50C75C5038FC4EEFF8FC37537
:09084B00C65A75C6A50002087B1F
:1005DC005392FE5391FE5392FB5391FB43BA80907E
:1005EC00FECCE4F090FEC87468F0A3F090FECC74DE
:1005FC0031F090FED0E4F0A3740BF0A3744EF0A392
:10060C00741FF090FED5E4F0A3F0A3F0A3F090FEDD
:10061C00B1E04401F0E04404F090FEDD7480F09011
:06062C00FEC07401F02283
:10077F00E4FE7C4E7D20120438E47B64FAF9F81213
:10078F000367AC06AD0743BA80AF0490FED5EFF018
:0A079F00A3EDF0A3EFF0A3EDF022AC
:1007A900093A00000000000000000001430018227F
:1007B9000001010100010101000000000000010029
:0807C900010001000001010123
:10071D005392CF5391CF75BA8090FE807481F0EFD4
:10072D0025E090FE85F090FE84E4F090FE837478D1
:10073D00F0D2AFD200D201E4243AF8E690FE86F072
:01074D002289
:10063200E4FFFE53B2FD53B1FD43BA8090FEA874AD
:100642003FF075DE0F43DE2075BC8043BC0943BC1E
:10065200400000E5BC30E5FB53BCDFAFBDEFFEADB3
:10066200BEEDFFAC06E4120271E4FBFA7980784435
:100672001201CF7B007A40794E78451200C6020201
:01068200AACD
:10057600E4FFFE53B2FE53B1FE43BA8090FEA87468
:100586003FF075DE0F43DE2075BC8043BC0843BCDC
:10059600400000E5BC30E5FB53BCDFAFBDEFFEAD70
:1005A600BEEDFFAC06E4120271E4FBFA79807844F2
:1005B6001201CF7B007A40794E78451200C6E4FBE3
:1005C600FA79C878421201CF7BCD7ACC794C783D46
:0605D6001201CF0202AA8F
:1008540012074E1208881208AA1208A31205DC1205
:0708640006D17F5A02071DB7
:1004F100E4F508F509F50AF50BF50CF50DF50EF522
:100501000FF5101208547B01E4FDFF12086BD2B401
:100511001206328E0B8F0CE50BF53AEFF53B120507
:10052100768E0D8F0EE50DF53CEFF53DA2B5E4336A
:10053100F53EA2B3E433F53F854340E509654360E9
:1005410027854309AF097E007C4E7D20120438E4E3
:100551007B64FAF9F81203678E0F8F10E50FF541EE
:10056100851042AF0912077F7F147E007D007C0059
:05057100120683809BCF
:0300C30002000335
:10000300C0E0C083C082C0D075D000C000C007C0AC
:10001300BA43BA8090FE84E030E606E054BFF08035
:100023006A90FE84E030E52FE054DFF0300004C234
:1000330000805830010CC20190FE87E0F521243A7C
:100043008032E521C39480404290FE87E0FF74C371
:100053002521F8A607803490FE84E030E41EE054A6
:10006300EFF0E030E10890FE8674FFF0801D05217B
:10007300743A2521F8E690FE86F0800F90FE84E026
:1000830030E308E054F7F0D200D201D0BAD007D061
:0A00930000D0D0D082D083D0E0323C
:10074E0043B21053B1EF43B24053B1BF53927F4304
:10075E00918053CAEF43C91053B2F743B10853B255
:10076E00DF43B12053B2FE43B10153B2FD43B10298
:01077E002258
:0908880043B24053B1BFD2B622C5
:0908910043B21053B1EFD2B422BE
:09089A0043B21053B1EFC2B422C5
:1006D100E4F51143928053917F43B21053B1EF205F
:1006E100970F7FF47E01FDFC120822209703D2B4FC
:1006F100227F007E041207D28F11E51124FE6006CD
:10070100047006C2B422D2B422C2B47F007E0412A5
:0C071100083B7D017F007E041207ED22F2
:0100C000221D
:0100C100221C
:0100C200221B
:0708AA0043924C5391B3226D
:10086B00EF24FF9296ED24FF9293EB24FF929222BA
:0708B100C296C293C292221D
:1000C600EC4D6011E8497017ED33EC3304600DE434
:1000D600FCFFFEFD22E933E8330470F80203161232
:1000E60002E158046009E4CC248150062850090234
:1000F600032028400302031DC0E0EB4A7044B98088
:1001060006D0E0FB02030CEF4E701CBD8008EBFF2F
:10011600EAFEE9FD80EBE98DF0A4FEE5F00201AF11
:10012600E9CDF9EAFEEBFFEF89F0A4FCE5F0CE8914
:10013600F0A42EFFE435F0CD89F0A42DFEE435F0D1
:100146008067EF4E7005BD80D780C3EF8BF0A4ACFF
:10015600F0EE8BF0A42CFCE435F0F8EF8AF0A42C3A
:10016600E5F038FCE433CB8DF0A42CFCE5F03BF84D
:10017600EE8AF0A42CFCE5F038F8E433CF89F0A43D
:100186002CFCE5F038CF3400CE89F0A42FFFE5F043
:100196003EFEE433C98DF0A42EFEE5F039CD8AF09B
:1001A600A42FFFE5F03EFEE43DFD33D0E0FB500713
:1001B6000BBB000F020320EC2CFCEF33FFEE33FEEB
:0601C600ED33FD0202F81A
:1001CC00020320EC5D046005E85904700302031679
:1001DC001202E1580460F6EC4860F2EC7004FDFE8B
:1001EC00FF22C860DB2481C85009C3986002500606
:1001FC0002031D9850CAF582E9294B4A7005AB825F
:10020C0002030C75F0007C1A7880C3EF9BEE9AED1C
:10021C0099400DC3EF9BFFEE9AFEED99FDE842F07D
:10022C00DC23ACF0D0E0FFD0E0FED0E0FDAB8220D0
:10023C00E7101BEB60BAEC2CFCEF33FFEE33FEED5A
:10024C0033FD0202F8E803F830E705C0F075F00062
:10025C00EF2FFFEE33FEED33FD40B830E7C280AA3E
:10026C0075F020800E75F010800575F0087D007E0D
:10027C00007F003392D530D5031203F9EC334010D4
:10028C00EF33FFEE33FEED33FDEC33FCD5F0ED2216
:0E029C00E5F0247EA2D513CC92E7CDCEFF2252
:1002AA00EDD2E7CD33EC3392D524814006E4FFFE4C
:1002BA00FDFC22FCE4CFCECDCC24E0501174FF80AB
:1002CA00EDC3CC13CCCD13CDCE13CECF13CF047048
:0702DA00F030D5DE0203F94C
:1002E100E9D2E7C933E833F892D5EDD2E7CD33EC63
:0702F10033FC5002B2D522DC
:1002F800EC30E7100FBF000C0EBE00080DBD000467
:100308000BEB6014A2D5EB13FCED92E7FD2274FF12
:10031800FCFDFEFF22E480F8A2D574FF13FC7D806B
:03032800E480EF7F
:100471000204F1E493A3F8E493A34003F68001F2AC
:1004810008DFF48029E493A3F85407240CC8C3338C
:10049100C4540F4420C8834004F456800146F6DF5B
:1004A100E4800B01020408102040809007A9E47E3B
:1004B100019360BCA3FF543F30E509541FFEE49350
:1004C100A360010ECF54C025E060A840B8E493A317
:1004D100FAE493A3F8E493A3C8C582C8CAC583CA42
:1004E100F0A3C8C582C8CAC583CADFE9DEE780BEFA
:0107D1000027
:10032B0075F008758200EF2FFFEE33FECD33CDCC89
:10033B0033CCC58233C5829BED9AEC99E58298400C
:10034B000CF582EE9BFEED9AFDEC99FC0FD5F0D6E9
:10035B00E4CEFBE4CDFAE4CCF9A88222B800C1B913
:10036B000059BA002DEC8BF084CFCECDFCE5F0CB51
:10037B00F97818EF2FFFEE33FEED33FDEC33FCEB8A
:10038B0033FB10D703994004EB99FB0FD8E5E4F945
:10039B00FA227818EF2FFFEE33FEED33FDEC33FC32
:1003AB00C933C910D7059BE99A4007EC9BFCE99A26
:1003BB00F90FD8E0E4C9FAE4CCFB2275F010EF2F6B
:1003CB00FFEE33FEED33FDCC33CCC833C810D7076B
:1003DB009BEC9AE899400AED9BFDEC9AFCE899F8A6
:0E03EB000FD5F0DAE4CDFBE4CCFAE4C8F92239
:0E03F900C3E49FFFE49EFEE49DFDE49CFC2215
:10040700EB9FF5F0EA9E42F0E99D42F0E89C45F04B
:0104170022C2
:100418007401FF3395E0FEFDFC080808E6CF2FF6CF
:1004280018E6CE3EF618E6CD3DF618E6CC3CF622A8
:10043800EC8EF0A4CCC5F0CCCDF8EFA4CEC5F02D51
:10044800FDE43CFCE8A42EC8C5F03DFDE43CFCEF0F
:0D045800A4FFE5F028FEE43DFDE43CFC229D
:00000001FF
