:03000000020515E1
:0C051500787FE4F6D8FD75814A02055C91
:0E09F900092F000000000000000000012E0089
:10060F00E4F548E4F548E4FBFDAF481205A17F325D
:10061F007E007D007C0012076F0548E548C394FFFC
:10062F0040E4E4F548E4FBAD48FF1205A17F327EBC
:10063F00007D007C0012076F0548E548C394FF401A
:10064F00E4E4F548E548C394FF50B8AB48E4FDFF38
:10065F001205A17F327E007D007C0012076F0548D6
:02066F0080E227
:10093400E4F549120AC0BF01FA0549E549D3940711
:100944004003E4F549E549C43354E0FDFFE549C4F7
:100954003354E0FB1205A17FC87E007D007C0012A9
:04096400076F80CFCA
:1008FD00E4F54A120AC0BF01FA740A254AF54AD333
:10090D0094644003E4F54AAF4A120A41E54A25E0F2
:10091D00FDFFE54A25E0FB1205A17FC87E007D00A5
:07092D007C0012076F80CC73
:100968005392CF5391CF43BA8090FE807481F09018
:10097800FE8574B4F090FE84E4F090FE837478F001
:10098800D2AFD200D201E4F52D742F252DF8E690D0
:04099800FE86F022C5
:0300C30002047BB9
:10047B00C0E0C083C082C0D075D000C000C007C030
:10048B00BA43BA8090FE84E030E606E054BFF080B9
:10049B006A90FE84E030E52FE054DFF0300004C2B8
:1004AB0000805830010CC20190FE87E0F52D242FFF
:1004BB008032E52DC39480404290FE87E0FF74AEFE
:1004CB00252DF8A607803490FE84E030E41EE0541E
:1004DB00EFF0E030E10890FE8674FFF0801D052DF3
:1004EB00742F252DF8E690FE86F0800F90FE84E0A9
:1004FB0030E308E054F7F0D200D201D0BAD007D0E5
:0A050B0000D0D0D082D083D0E032BF
:100B6200120803120BAD1208C3120671120B3C02DB
:020B7200096810
:10084600E4F508F509F50AF50BF50CF50DF50EF5C9
:100856000FF510F511120B62120A638E0C8F0DE55F
:100866000CF52FEFF53012099C8E0E8F0FE50EF565
:1008760031EFF5327F147E007D007C0012076F8019
:01088600D79A
:070BB60053B2F743B108221E
:100AC00020B3147F057E007D007C0012076F20B3E9
:0A0AD000037F01227F00227F002235
:10076F008F158E148D138C12781274FF120430ECC7
:10077F004D4E4F6038E4F519F518F517F516E47F6F
:10078F00FAFEFDFCAB19AA18A917A816C312041D6F
:10079F0050D600000000E5192401F519E43518F5CD
:0E07AF0018E43517F517E43516F51680D1223B
:100ADA008F168E158D148C13781374FF120430EC54
:090AEA004D4E4F60030080F02224
:100A1E008F418E408D3F8C3E783E74FF120430EC39
:100A2E004D4E4F600D7FE87E037D007C0012076FF8
:030A3E0080E6222D
:0D0B9500E4F5C7F5C5F5C675C380F5C422AB
:1000A30075C78075F50C75C5018FC4EEFF8FC375D9
:0B00B300C65A75C6A500AFC2020B952F
:100AA50075C78075F50C75C5028FC4EEFF8FC38DB4
:0B0AB500C275C65A75C6A500020B955D
:100AF30075C78075F50C75C5038FC4EEFF8FC3757D
:090B0300C65A75C6A500020B9547
:100720005396EF5395EFC2A443BA8090FEB2E044D3
:1007300010F090FECCE4F090FECA7468F090FECD0C
:100740007401F090FED0E4F0A3740BF0A3744EF0AB
:10075000A3741FF090FED9E4F0A3F090FEB1E04442
:0F07600010F090FEDD7480F090FEC07401F02266
:100A4100E4FE7C4E7D2012044EE47B64FAF9F81238
:100A51000367AC06AD0743BA8090FED9ECF0A3ED75
:020A6100F02281
:100A070002210000042700000000022507D002236E
:060A170007D0022B0032A3
:100803004394015393FE43B20453B1FB5394FD430A
:1008130093025392F74391085396F74395085396DF
:10082300DF4395204392015391FE5392BF4391407E
:1008330053927F4391805394FB4393045394F74320
:03084300930822F5
:090BAD0043B20453B1FBD2B222A1
:100B0C004394015393FEC2807F007E04120AF37D4E
:080B1C00027F007E04020AA51D
:100B24004394015393FEC2807F007E04120AF37D36
:080B3400017F007E04020AA506
:1008C300E4F51243928053917F43B21053B1EF206A
:1008D300A50F7FF47E01FDFC120ADA20A503D28066
:1008E300227F007E041200A38F12E51224FE600310
:0A08F300048003020B0C120B2422F8
:100B3C0043BA8090FEA8743FF075DE0F43DE20753B
:030B4C00BC802248
:10088700E4FDFC53BCF0EF42BC43BC400000E5BCB8
:1008970030E5FB53BCDFAFBDEFADBEFCEDAE04FFF3
:1008A700E4120271E4FBFA798078441201CF7B00ED
:0C08B7007A40794E78451200C60202AA71
:0B0BA2005392BF4391407F060208877A
:100A630053927F4391807F07120887AC06AD07E45A
:100A73001202717B977A96795678401200C6020269
:010A8300AAC8
:10099C005394FB4393047F0A120887EF241EFDEE49
:1009AC0034FBFCE41202717BCD7ACC794C783D128D
:0F09BC0001CFE4FBFA79C878421201CF0202AAF8
:1009CB005394F7439308120B3C7F0B120887AC062A
:1009DB00AD07E41202717BCD7ACC794C783D1201D4
:0E09EB00CFE4FBFA79C878421201CF0202AACB
:100B7400308108120BA21200038003E4FFFE120A64
:020B84008422C9
:1007BD004392015391FE43BA8090FECCE4F090FE3B
:1007CD00C87468F090FECC7401F090FED0E4F0A3F4
:1007DD00740BF0A3744EF0A3741FF090FED5E4F0EB
:1007ED00A3F090FEB1E04401F090FEDD7480F09036
:0607FD00FEC07401F022B1
:100A84007C4E7D2012044EE47BE47A0CF9F81203C8
:100A940067AC06AD0743BA8090FED5ECF0A3EDF049
:010AA400222F
:10000300EF24DCFFEE34EC8F82F583FEE4FCFDE5A8
:100013002A2FF52AE5293EF529ED3528F528EC3573
:1000230027F5277FF07EF67DFA7CFFAB2AAA29A964
:1000330028F8C3120407500E752AF07529F675289F
:10004300FA7527FF80227F107E097D057C00AB2A8D
:10005300AA29A928A827D3120407400C752A1075CA
:100063002909752805752700858321858222AE839A
:10007300AF82AD07AC06E41202717BCD7ACC79CCAA
:10008300783D1200C61202AAC3EE94005004E4FEA7
:10009300FF22D3EF94DCEE940540047E057FDC223F
:1006CE00C280120A638E1A8F1B12099C8E1E8F1FF8
:1006DE00D280120A638E1C8F1D12099C8F828E830C
:1006EE00C3E51D951BFFE51C951AFE7C037DE812E4
:1006FE00044EC006C007C3E582951FFFE583951E15
:10070E00AB07FAE4F9F8D007D0061203678E2B8FE9
:02071E002C228B
:0F0B8600120A638E428F4312099C8E448F4522C0
:0100BE00221F
:0100BF00221E
:0100C000221D
:100671005396F85395F843BA8090FEECE4F090FE5F
:10068100E87468F0A3F0A3F090FEEC7433F0A37467
:1006910003F090FEF0E4F0A304F0A37417F0A37448
:1006A1006FF090FEF5E4F0A3F0A3F0A3F0A3F0A3A4
:1006B100F090FEB5E04401F0E04404F0E04410F0B5
:0D06C10090FEFD7480F090FEE07401F022C8
:1005A1008D388B39E4F53AF53BF53CF53DFE7C178A
:1005B1007D7012044EE47BFFFAF9F81203678E3A5C
:1005C1008F3BAF387E007C177D7012044EE47BFFB9
:1005D100FAF9F81203678E3C8F3DAF397E007C1724
:1005E1007D7012044EE47BFFFAF9F8120367AC0642
:1005F100AD0743BA8090FEF5ECF0A3EDF0E53CA326
:0E060100F0A3E53DF0E53AA3F0A3E53BF022BF
:100B4F0043BA8090FEF5E4F0A3F0A3F0A3F0A3F076
:030B5F00A3F022DE
:1000C600EC4D6011E8497017ED33EC3304600DE434
:1000D600FCFFFEFD22E933E8330470F80203161232
:1000E60002E158046009E4CC248150062850090234
:1000F600032028400302031DC0E0EB4A7044B98088
:1001060006D0E0FB02030CEF4E701CBD8008EBFF2F
:10011600EAFEE9FD80EBE98DF0A4FEE5F00201AF11
:10012600E9CDF9EAFEEBFFEF89F0A4FCE5F0CE8914
:10013600F0A42EFFE435F0CD89F0A42DFEE435F0D1
:100146008067EF4E7005BD80D780C3EF8BF0A4ACFF
:10015600F0EE8BF0A42CFCE435F0F8EF8AF0A42C3A
:10016600E5F038FCE433CB8DF0A42CFCE5F03BF84D
:10017600EE8AF0A42CFCE5F038F8E433CF89F0A43D
:100186002CFCE5F038CF3400CE89F0A42FFFE5F043
:100196003EFEE433C98DF0A42EFEE5F039CD8AF09B
:1001A600A42FFFE5F03EFEE43DFD33D0E0FB500713
:1001B6000BBB000F020320EC2CFCEF33FFEE33FEEB
:0601C600ED33FD0202F81A
:1001CC00020320EC5D046005E85904700302031679
:1001DC001202E1580460F6EC4860F2EC7004FDFE8B
:1001EC00FF22C860DB2481C85009C3986002500606
:1001FC0002031D9850CAF582E9294B4A7005AB825F
:10020C0002030C75F0007C1A7880C3EF9BEE9AED1C
:10021C0099400DC3EF9BFFEE9AFEED99FDE842F07D
:10022C00DC23ACF0D0E0FFD0E0FED0E0FDAB8220D0
:10023C00E7101BEB60BAEC2CFCEF33FFEE33FEED5A
:10024C0033FD0202F8E803F830E705C0F075F00062
:10025C00EF2FFFEE33FEED33FD40B830E7C280AA3E
:10026C0075F020800E75F010800575F0087D007E0D
:10027C00007F003392D530D5031203F9EC334010D4
:10028C00EF33FFEE33FEED33FDEC33FCD5F0ED2216
:0E029C00E5F0247EA2D513CC92E7CDCEFF2252
:1002AA00EDD2E7CD33EC3392D524814006E4FFFE4C
:1002BA00FDFC22FCE4CFCECDCC24E0501174FF80AB
:1002CA00EDC3CC13CCCD13CDCE13CECF13CF047048
:0702DA00F030D5DE0203F94C
:1002E100E9D2E7C933E833F892D5EDD2E7CD33EC63
:0702F10033FC5002B2D522DC
:1002F800EC30E7100FBF000C0EBE00080DBD000467
:100308000BEB6014A2D5EB13FCED92E7FD2274FF12
:10031800FCFDFEFF22E480F8A2D574FF13FC7D806B
:03032800E480EF7F
:10052100020846E493A3F8E493A34003F68001F2A2
:1005310008DFF48029E493A3F85407240CC8C333DB
:10054100C4540F4420C8834004F456800146F6DFAA
:10055100E4800B01020408102040809009F9E47E38
:10056100019360BCA3FF543F30E509541FFEE4939F
:10057100A360010ECF54C025E060A840B8E493A366
:10058100FAE493A3F8E493A3C8C582C8CAC583CA91
:10059100F0A3C8C582C8CAC583CADFE9DEE780BE49
:010A1D0000D8
:10032B0075F008758200EF2FFFEE33FECD33CDCC89
:10033B0033CCC58233C5829BED9AEC99E58298400C
:10034B000CF582EE9BFEED9AFDEC99FC0FD5F0D6E9
:10035B00E4CEFBE4CDFAE4CCF9A88222B800C1B913
:10036B000059BA002DEC8BF084CFCECDFCE5F0CB51
:10037B00F97818EF2FFFEE33FEED33FDEC33FCEB8A
:10038B0033FB10D703994004EB99FB0FD8E5E4F945
:10039B00FA227818EF2FFFEE33FEED33FDEC33FC32
:1003AB00C933C910D7059BE99A4007EC9BFCE99A26
:1003BB00F90FD8E0E4C9FAE4CCFB2275F010EF2F6B
:1003CB00FFEE33FEED33FDCC33CCC833C810D7076B
:1003DB009BEC9AE899400AED9BFDEC9AFCE899F8A6
:0E03EB000FD5F0DAE4CDFBE4CCFAE4C8F92239
:0E03F900C3E49FFFE49EFEE49DFDE49CFC2215
:10040700EB9FF5F0EA9E42F0E99D42F0EC6480C86C
:0604170064809845F0220C
:10041D00EB9FF5F0EA9E42F0E99D42F0E89C45F035
:01042D0022AC
:10042E007401FF3395E0FEFDFC080808E6CF2FF6B9
:10043E0018E6CE3EF618E6CD3DF618E6CC3CF62292
:10044E00EC8EF0A4CCC5F0CCCDF8EFA4CEC5F02D3B
:10045E00FDE43CFCE8A42EC8C5F03DFDE43CFCEFF9
:0D046E00A4FFE5F028FEE43DFDE43CFC2287
:00000001FF
